{
  "_format": "hh-sol-artifact-1",
  "contractName": "Fundraiser",
  "sourceName": "contracts/fundraise/Fundraiser.sol",
  "abi": [
    {
      "anonymous": false,
      "inputs": [
        {
          "indexed": false,
          "internalType": "uint48",
          "name": "",
          "type": "uint48"
        }
      ],
      "name": "FundraiseCreated",
      "type": "event"
    },
    {
      "anonymous": false,
      "inputs": [
        {
          "indexed": false,
          "internalType": "uint48",
          "name": "",
          "type": "uint48"
        },
        {
          "indexed": false,
          "internalType": "address",
          "name": "funder",
          "type": "address"
        },
        {
          "indexed": false,
          "internalType": "address",
          "name": "token",
          "type": "address"
        },
        {
          "indexed": false,
          "internalType": "uint256",
          "name": "amount",
          "type": "uint256"
        }
      ],
      "name": "FundraiseFunded",
      "type": "event"
    },
    {
      "anonymous": false,
      "inputs": [
        {
          "indexed": false,
          "internalType": "uint48",
          "name": "",
          "type": "uint48"
        },
        {
          "indexed": false,
          "internalType": "address",
          "name": "",
          "type": "address"
        }
      ],
      "name": "FundraiseLiquidated",
      "type": "event"
    },
    {
      "inputs": [
        {
          "internalType": "address",
          "name": "_beneficiary",
          "type": "address"
        }
      ],
      "name": "addFundraising",
      "outputs": [
        {
          "internalType": "uint48",
          "name": "id",
          "type": "uint48"
        }
      ],
      "stateMutability": "nonpayable",
      "type": "function"
    },
    {
      "inputs": [
        {
          "internalType": "uint48",
          "name": "_id",
          "type": "uint48"
        },
        {
          "internalType": "address",
          "name": "_asset",
          "type": "address"
        },
        {
          "internalType": "uint256",
          "name": "amount",
          "type": "uint256"
        }
      ],
      "name": "fund",
      "outputs": [],
      "stateMutability": "nonpayable",
      "type": "function"
    },
    {
      "inputs": [
        {
          "internalType": "uint48",
          "name": "_id",
          "type": "uint48"
        }
      ],
      "name": "liquidateFundraising",
      "outputs": [],
      "stateMutability": "nonpayable",
      "type": "function"
    }
  ],
  "bytecode": "0x608060405234801561001057600080fd5b50610eb8806100206000396000f3fe608060405234801561001057600080fd5b50600436106100415760003560e01c806376a7985e14610046578063d2d433f214610076578063e8cb9ec014610092575b600080fd5b610060600480360381019061005b91906109e8565b6100ae565b60405161006d9190610a36565b60405180910390f35b610090600480360381019061008b9190610ab3565b6101f1565b005b6100ac60048036038101906100a79190610b06565b610347565b005b6000808054905090506000806001816001815401808255809150500390600052602060002090600402019050818160000160006101000a81548165ffffffffffff021916908365ffffffffffff160217905550338160000160066101000a81548173ffffffffffffffffffffffffffffffffffffffff021916908373ffffffffffffffffffffffffffffffffffffffff160217905550828160010160006101000a81548173ffffffffffffffffffffffffffffffffffffffff021916908373ffffffffffffffffffffffffffffffffffffffff16021790555060008160010160146101000a81548160ff021916908360018111156101af576101ae610b33565b5b02179055507f7fb4b51945966abc12833cfa2da01edfd767d131b093449237fc87d6f8fd2cb2826040516101e39190610a36565b60405180910390a150919050565b8173ffffffffffffffffffffffffffffffffffffffff166323b872dd3330846040518463ffffffff1660e01b815260040161022e93929190610b80565b6020604051808303816000875af115801561024d573d6000803e3d6000fd5b505050506040513d601f19601f820116820180604052508101906102719190610bef565b61027a57600080fd5b8060008465ffffffffffff168154811061029757610296610c1c565b5b906000526020600020906004020160030160008473ffffffffffffffffffffffffffffffffffffffff1673ffffffffffffffffffffffffffffffffffffffff16815260200190815260200160002060008282546102f49190610c7a565b9250508190555061030583836106a7565b7f5359426a9b8d272314c69f7f1fc7fd5d731116d304675111a4abb7294b1cd20b8333848460405161033a9493929190610cae565b60405180910390a1505050565b803373ffffffffffffffffffffffffffffffffffffffff1660008265ffffffffffff168154811061037b5761037a610c1c565b5b906000526020600020906004020160000160069054906101000a900473ffffffffffffffffffffffffffffffffffffffff1673ffffffffffffffffffffffffffffffffffffffff1614610403576040517f08c379a00000000000000000000000000000000000000000000000000000000081526004016103fa90610d76565b60405180910390fd5b816000600181111561041857610417610b33565b5b60008265ffffffffffff168154811061043457610433610c1c565b5b906000526020600020906004020160010160149054906101000a900460ff16600181111561046557610464610b33565b5b146104a5576040517f08c379a000000000000000000000000000000000000000000000000000000000815260040161049c90610de2565b60405180910390fd5b60006104b084610748565b905060005b818165ffffffffffff1610156105c45760006104d18683610781565b90508073ffffffffffffffffffffffffffffffffffffffff1663a9059cbb60008865ffffffffffff168154811061050b5761050a610c1c565b5b906000526020600020906004020160010160009054906101000a900473ffffffffffffffffffffffffffffffffffffffff1661054789856107fc565b6040518363ffffffff1660e01b8152600401610564929190610e02565b6020604051808303816000875af1158015610583573d6000803e3d6000fd5b505050506040513d601f19601f820116820180604052508101906105a79190610bef565b6105b057600080fd5b5080806105bc90610e2b565b9150506104b5565b50600160008565ffffffffffff16815481106105e3576105e2610c1c565b5b906000526020600020906004020160010160146101000a81548160ff0219169083600181111561061657610615610b33565b5b02179055507faa9256dc86c86913e2fbf4470164001fb7136705c9792863741dd1be26476a5e8460008665ffffffffffff168154811061065957610658610c1c565b5b906000526020600020906004020160010160009054906101000a900473ffffffffffffffffffffffffffffffffffffffff16604051610699929190610e59565b60405180910390a150505050565b6106b18282610870565b6107445760008265ffffffffffff16815481106106d1576106d0610c1c565b5b9060005260206000209060040201600201819080600181540180825580915050600190039060005260206000200160009091909190916101000a81548173ffffffffffffffffffffffffffffffffffffffff021916908373ffffffffffffffffffffffffffffffffffffffff1602179055505b5050565b6000808265ffffffffffff168154811061076557610764610c1c565b5b9060005260206000209060040201600201805490509050919050565b6000808365ffffffffffff168154811061079e5761079d610c1c565b5b90600052602060002090600402016002018265ffffffffffff16815481106107c9576107c8610c1c565b5b9060005260206000200160009054906101000a900473ffffffffffffffffffffffffffffffffffffffff16905092915050565b6000808365ffffffffffff168154811061081957610818610c1c565b5b906000526020600020906004020160030160008373ffffffffffffffffffffffffffffffffffffffff1673ffffffffffffffffffffffffffffffffffffffff16815260200190815260200160002054905092915050565b600080600090505b60008465ffffffffffff168154811061089457610893610c1c565b5b9060005260206000209060040201600201805490508165ffffffffffff161015610979578273ffffffffffffffffffffffffffffffffffffffff1660008565ffffffffffff16815481106108eb576108ea610c1c565b5b90600052602060002090600402016002018265ffffffffffff168154811061091657610915610c1c565b5b9060005260206000200160009054906101000a900473ffffffffffffffffffffffffffffffffffffffff1673ffffffffffffffffffffffffffffffffffffffff160361096657600191505061097f565b808061097190610e2b565b915050610878565b50600090505b92915050565b600080fd5b600073ffffffffffffffffffffffffffffffffffffffff82169050919050565b60006109b58261098a565b9050919050565b6109c5816109aa565b81146109d057600080fd5b50565b6000813590506109e2816109bc565b92915050565b6000602082840312156109fe576109fd610985565b5b6000610a0c848285016109d3565b91505092915050565b600065ffffffffffff82169050919050565b610a3081610a15565b82525050565b6000602082019050610a4b6000830184610a27565b92915050565b610a5a81610a15565b8114610a6557600080fd5b50565b600081359050610a7781610a51565b92915050565b6000819050919050565b610a9081610a7d565b8114610a9b57600080fd5b50565b600081359050610aad81610a87565b92915050565b600080600060608486031215610acc57610acb610985565b5b6000610ada86828701610a68565b9350506020610aeb868287016109d3565b9250506040610afc86828701610a9e565b9150509250925092565b600060208284031215610b1c57610b1b610985565b5b6000610b2a84828501610a68565b91505092915050565b7f4e487b7100000000000000000000000000000000000000000000000000000000600052602160045260246000fd5b610b6b816109aa565b82525050565b610b7a81610a7d565b82525050565b6000606082019050610b956000830186610b62565b610ba26020830185610b62565b610baf6040830184610b71565b949350505050565b60008115159050919050565b610bcc81610bb7565b8114610bd757600080fd5b50565b600081519050610be981610bc3565b92915050565b600060208284031215610c0557610c04610985565b5b6000610c1384828501610bda565b91505092915050565b7f4e487b7100000000000000000000000000000000000000000000000000000000600052603260045260246000fd5b7f4e487b7100000000000000000000000000000000000000000000000000000000600052601160045260246000fd5b6000610c8582610a7d565b9150610c9083610a7d565b9250828201905080821115610ca857610ca7610c4b565b5b92915050565b6000608082019050610cc36000830187610a27565b610cd06020830186610b62565b610cdd6040830185610b62565b610cea6060830184610b71565b95945050505050565b600082825260208201905092915050565b7f46756e6472616973652063616e206f6e6c79206265206c69717569646174656460008201527f206279206974732063726561746f720000000000000000000000000000000000602082015250565b6000610d60602f83610cf3565b9150610d6b82610d04565b604082019050919050565b60006020820190508181036000830152610d8f81610d53565b9050919050565b7f46756e64726169736520616c7265616479206c69717569646174656400000000600082015250565b6000610dcc601c83610cf3565b9150610dd782610d96565b602082019050919050565b60006020820190508181036000830152610dfb81610dbf565b9050919050565b6000604082019050610e176000830185610b62565b610e246020830184610b71565b9392505050565b6000610e3682610a15565b915065ffffffffffff8203610e4e57610e4d610c4b565b5b600182019050919050565b6000604082019050610e6e6000830185610a27565b610e7b6020830184610b62565b939250505056fea26469706673582212201d05280f4ac6f3982b72ebc4717a6ab07c695e7a16aa9ce73112d05da852580264736f6c63430008110033",
  "linkReferences": {},
  "deployedLinkReferences": {}
}