{
  "_format": "hh-sol-artifact-1",
  "contractName": "Fundraiser",
  "sourceName": "contracts/fundraise/Fundraiser.sol",
  "abi": [
    {
      "anonymous": false,
      "inputs": [
        {
          "indexed": false,
          "internalType": "uint256",
          "name": "",
          "type": "uint256"
        }
      ],
      "name": "FundraiseCreated",
      "type": "event"
    },
    {
      "anonymous": false,
      "inputs": [
        {
          "indexed": false,
          "internalType": "uint256",
          "name": "",
          "type": "uint256"
        },
        {
          "indexed": false,
          "internalType": "address",
          "name": "funder",
          "type": "address"
        },
        {
          "indexed": false,
          "internalType": "address",
          "name": "token",
          "type": "address"
        },
        {
          "indexed": false,
          "internalType": "uint256",
          "name": "amount",
          "type": "uint256"
        }
      ],
      "name": "FundraiseFunded",
      "type": "event"
    },
    {
      "anonymous": false,
      "inputs": [
        {
          "indexed": false,
          "internalType": "uint256",
          "name": "",
          "type": "uint256"
        },
        {
          "indexed": false,
          "internalType": "address",
          "name": "",
          "type": "address"
        }
      ],
      "name": "FundraiseLiquidated",
      "type": "event"
    },
    {
      "anonymous": false,
      "inputs": [
        {
          "indexed": true,
          "internalType": "address",
          "name": "previousOwner",
          "type": "address"
        },
        {
          "indexed": true,
          "internalType": "address",
          "name": "newOwner",
          "type": "address"
        }
      ],
      "name": "OwnershipTransferred",
      "type": "event"
    },
    {
      "inputs": [
        {
          "internalType": "address",
          "name": "_beneficiary",
          "type": "address"
        }
      ],
      "name": "addFundraising",
      "outputs": [
        {
          "internalType": "uint256",
          "name": "id",
          "type": "uint256"
        }
      ],
      "stateMutability": "nonpayable",
      "type": "function"
    },
    {
      "inputs": [
        {
          "internalType": "uint256",
          "name": "_id",
          "type": "uint256"
        }
      ],
      "name": "fund",
      "outputs": [],
      "stateMutability": "payable",
      "type": "function"
    },
    {
      "inputs": [
        {
          "internalType": "uint256",
          "name": "_id",
          "type": "uint256"
        },
        {
          "internalType": "address",
          "name": "_asset",
          "type": "address"
        },
        {
          "internalType": "uint256",
          "name": "amount",
          "type": "uint256"
        }
      ],
      "name": "fundToken",
      "outputs": [],
      "stateMutability": "nonpayable",
      "type": "function"
    },
    {
      "inputs": [
        {
          "internalType": "uint256",
          "name": "_id",
          "type": "uint256"
        }
      ],
      "name": "getFundraisingAssets",
      "outputs": [
        {
          "internalType": "address[]",
          "name": "assets",
          "type": "address[]"
        },
        {
          "internalType": "uint256[]",
          "name": "amounts",
          "type": "uint256[]"
        }
      ],
      "stateMutability": "view",
      "type": "function"
    },
    {
      "inputs": [
        {
          "internalType": "uint256",
          "name": "_id",
          "type": "uint256"
        }
      ],
      "name": "getFundraisingCreator",
      "outputs": [
        {
          "internalType": "address",
          "name": "",
          "type": "address"
        }
      ],
      "stateMutability": "view",
      "type": "function"
    },
    {
      "inputs": [
        {
          "internalType": "uint256",
          "name": "_id",
          "type": "uint256"
        }
      ],
      "name": "liquidateFundraising",
      "outputs": [],
      "stateMutability": "nonpayable",
      "type": "function"
    },
    {
      "inputs": [],
      "name": "owner",
      "outputs": [
        {
          "internalType": "address",
          "name": "",
          "type": "address"
        }
      ],
      "stateMutability": "view",
      "type": "function"
    },
    {
      "inputs": [],
      "name": "renounceOwnership",
      "outputs": [],
      "stateMutability": "nonpayable",
      "type": "function"
    },
    {
      "inputs": [
        {
          "internalType": "address",
          "name": "newOwner",
          "type": "address"
        }
      ],
      "name": "transferOwnership",
      "outputs": [],
      "stateMutability": "nonpayable",
      "type": "function"
    },
    {
      "inputs": [],
      "name": "withdraw",
      "outputs": [],
      "stateMutability": "nonpayable",
      "type": "function"
    },
    {
      "stateMutability": "payable",
      "type": "receive"
    }
  ],
  "bytecode": "0x608060405234801561001057600080fd5b5061002d61002261003260201b60201c565b61003a60201b60201c565b6100fe565b600033905090565b60008060009054906101000a900473ffffffffffffffffffffffffffffffffffffffff169050816000806101000a81548173ffffffffffffffffffffffffffffffffffffffff021916908373ffffffffffffffffffffffffffffffffffffffff1602179055508173ffffffffffffffffffffffffffffffffffffffff168173ffffffffffffffffffffffffffffffffffffffff167f8be0079c531659141344cd1fd0a4f28419497f9722a3daafe3b4186f6b6457e060405160405180910390a35050565b611a5b8061010d6000396000f3fe6080604052600436106100955760003560e01c8063b754bd5111610059578063b754bd5114610174578063ca1d209d1461019d578063caef4a28146101b9578063f17e0e4f146101e2578063f2fde38b146102205761009c565b80633ccfd60b146100a15780636623bcc2146100b8578063715018a6146100f557806376a7985e1461010c5780638da5cb5b146101495761009c565b3661009c57005b600080fd5b3480156100ad57600080fd5b506100b6610249565b005b3480156100c457600080fd5b506100df60048036038101906100da919061119d565b6102e3565b6040516100ec919061120b565b60405180910390f35b34801561010157600080fd5b5061010a610332565b005b34801561011857600080fd5b50610133600480360381019061012e9190611252565b610346565b604051610140919061128e565b60405180910390f35b34801561015557600080fd5b5061015e61046c565b60405161016b919061120b565b60405180910390f35b34801561018057600080fd5b5061019b600480360381019061019691906112a9565b610495565b005b6101b760048036038101906101b2919061119d565b6105e3565b005b3480156101c557600080fd5b506101e060048036038101906101db919061119d565b6106e9565b005b3480156101ee57600080fd5b506102096004803603810190610204919061119d565b610ae6565b604051610217929190611478565b60405180910390f35b34801561022c57600080fd5b5061024760048036038101906102429190611252565b610cfc565b005b610251610d7f565b600047905060008111610299576040517f08c379a00000000000000000000000000000000000000000000000000000000081526004016102909061150c565b60405180910390fd5b3373ffffffffffffffffffffffffffffffffffffffff166108fc829081150290604051600060405180830381858888f193505050501580156102df573d6000803e3d6000fd5b5050565b6000600182815481106102f9576102f861152c565b5b906000526020600020906005020160010160009054906101000a900473ffffffffffffffffffffffffffffffffffffffff169050919050565b61033a610d7f565b6103446000610dfd565b565b600060018054905090506000600180816001815401808255809150500390600052602060002090600502019050818160000181905550338160010160006101000a81548173ffffffffffffffffffffffffffffffffffffffff021916908373ffffffffffffffffffffffffffffffffffffffff160217905550828160020160006101000a81548173ffffffffffffffffffffffffffffffffffffffff021916908373ffffffffffffffffffffffffffffffffffffffff16021790555060008160020160146101000a81548160ff0219169083600181111561042a5761042961155b565b5b02179055507f77e1787cd9895dafe6b4f3f1baad70c124093fa8e162349c24d1a826299ce7558260405161045e919061128e565b60405180910390a150919050565b60008060009054906101000a900473ffffffffffffffffffffffffffffffffffffffff16905090565b8173ffffffffffffffffffffffffffffffffffffffff166323b872dd3330846040518463ffffffff1660e01b81526004016104d29392919061158a565b6020604051808303816000875af11580156104f1573d6000803e3d6000fd5b505050506040513d601f19601f8201168201806040525081019061051591906115f9565b61051e57600080fd5b80600184815481106105335761053261152c565b5b906000526020600020906005020160040160008473ffffffffffffffffffffffffffffffffffffffff1673ffffffffffffffffffffffffffffffffffffffff16815260200190815260200160002060008282546105909190611655565b925050819055506105a18383610ec1565b7fcae4743045653ec51b2398f4f9d7b8a3a9388d54371df2eb488f282b4c9cdb88833384846040516105d69493929190611689565b60405180910390a1505050565b60003411610626576040517f08c379a000000000000000000000000000000000000000000000000000000000815260040161061d90611740565b60405180910390fd5b346001828154811061063b5761063a61152c565b5b906000526020600020906005020160040160003073ffffffffffffffffffffffffffffffffffffffff1673ffffffffffffffffffffffffffffffffffffffff16815260200190815260200160002060008282546106989190611655565b925050819055506106a98130610ec1565b7fcae4743045653ec51b2398f4f9d7b8a3a9388d54371df2eb488f282b4c9cdb88813330346040516106de9493929190611689565b60405180910390a150565b803373ffffffffffffffffffffffffffffffffffffffff16600182815481106107155761071461152c565b5b906000526020600020906005020160010160009054906101000a900473ffffffffffffffffffffffffffffffffffffffff1673ffffffffffffffffffffffffffffffffffffffff161461079d576040517f08c379a0000000000000000000000000000000000000000000000000000000008152600401610794906117d2565b60405180910390fd5b81600060018111156107b2576107b161155b565b5b600182815481106107c6576107c561152c565b5b906000526020600020906005020160020160149054906101000a900460ff1660018111156107f7576107f661155b565b5b14610837576040517f08c379a000000000000000000000000000000000000000000000000000000000815260040161082e9061183e565b60405180910390fd5b600061084284610f5a565b905060005b81811015610a1457600061085b8683610f8c565b90503073ffffffffffffffffffffffffffffffffffffffff168173ffffffffffffffffffffffffffffffffffffffff161461096a578073ffffffffffffffffffffffffffffffffffffffff1663a9059cbb600188815481106108c0576108bf61152c565b5b906000526020600020906005020160020160009054906101000a900473ffffffffffffffffffffffffffffffffffffffff166108fc8985610ff8565b6040518363ffffffff1660e01b815260040161091992919061185e565b6020604051808303816000875af1158015610938573d6000803e3d6000fd5b505050506040513d601f19601f8201168201806040525081019061095c91906115f9565b61096557600080fd5b610a00565b6001868154811061097e5761097d61152c565b5b906000526020600020906005020160020160009054906101000a900473ffffffffffffffffffffffffffffffffffffffff1673ffffffffffffffffffffffffffffffffffffffff166108fc6109d38830610ff8565b9081150290604051600060405180830381858888f193505050501580156109fe573d6000803e3d6000fd5b505b508080610a0c90611887565b915050610847565b506001808581548110610a2a57610a2961152c565b5b906000526020600020906005020160020160146101000a81548160ff02191690836001811115610a5d57610a5c61155b565b5b02179055507f379f8629db4f9950aad01936f52fb312961798c0b67d74bceffe8c3146842d498460018681548110610a9857610a9761152c565b5b906000526020600020906005020160020160009054906101000a900473ffffffffffffffffffffffffffffffffffffffff16604051610ad89291906118cf565b60405180910390a150505050565b6060806000610af484610f5a565b90508067ffffffffffffffff811115610b1057610b0f6118f8565b5b604051908082528060200260200182016040528015610b3e5781602001602082028036833780820191505090505b5092508067ffffffffffffffff811115610b5b57610b5a6118f8565b5b604051908082528060200260200182016040528015610b895781602001602082028036833780820191505090505b50915060005b81811015610cf55760018581548110610bab57610baa61152c565b5b90600052602060002090600502016003018181548110610bce57610bcd61152c565b5b9060005260206000200160009054906101000a900473ffffffffffffffffffffffffffffffffffffffff16848281518110610c0c57610c0b61152c565b5b602002602001019073ffffffffffffffffffffffffffffffffffffffff16908173ffffffffffffffffffffffffffffffffffffffff168152505060018581548110610c5a57610c5961152c565b5b90600052602060002090600502016004016000858381518110610c8057610c7f61152c565b5b602002602001015173ffffffffffffffffffffffffffffffffffffffff1673ffffffffffffffffffffffffffffffffffffffff16815260200190815260200160002054838281518110610cd657610cd561152c565b5b6020026020010181815250508080610ced90611887565b915050610b8f565b5050915091565b610d04610d7f565b600073ffffffffffffffffffffffffffffffffffffffff168173ffffffffffffffffffffffffffffffffffffffff1603610d73576040517f08c379a0000000000000000000000000000000000000000000000000000000008152600401610d6a90611999565b60405180910390fd5b610d7c81610dfd565b50565b610d87611065565b73ffffffffffffffffffffffffffffffffffffffff16610da561046c565b73ffffffffffffffffffffffffffffffffffffffff1614610dfb576040517f08c379a0000000000000000000000000000000000000000000000000000000008152600401610df290611a05565b60405180910390fd5b565b60008060009054906101000a900473ffffffffffffffffffffffffffffffffffffffff169050816000806101000a81548173ffffffffffffffffffffffffffffffffffffffff021916908373ffffffffffffffffffffffffffffffffffffffff1602179055508173ffffffffffffffffffffffffffffffffffffffff168173ffffffffffffffffffffffffffffffffffffffff167f8be0079c531659141344cd1fd0a4f28419497f9722a3daafe3b4186f6b6457e060405160405180910390a35050565b610ecb828261106d565b610f565760018281548110610ee357610ee261152c565b5b9060005260206000209060050201600301819080600181540180825580915050600190039060005260206000200160009091909190916101000a81548173ffffffffffffffffffffffffffffffffffffffff021916908373ffffffffffffffffffffffffffffffffffffffff1602179055505b5050565b600060018281548110610f7057610f6f61152c565b5b9060005260206000209060050201600301805490509050919050565b600060018381548110610fa257610fa161152c565b5b90600052602060002090600502016003018281548110610fc557610fc461152c565b5b9060005260206000200160009054906101000a900473ffffffffffffffffffffffffffffffffffffffff16905092915050565b60006001838154811061100e5761100d61152c565b5b906000526020600020906005020160040160008373ffffffffffffffffffffffffffffffffffffffff1673ffffffffffffffffffffffffffffffffffffffff16815260200190815260200160002054905092915050565b600033905090565b600080600090505b600184815481106110895761108861152c565b5b906000526020600020906005020160030180549050811015611156578273ffffffffffffffffffffffffffffffffffffffff16600185815481106110d0576110cf61152c565b5b906000526020600020906005020160030182815481106110f3576110f261152c565b5b9060005260206000200160009054906101000a900473ffffffffffffffffffffffffffffffffffffffff1673ffffffffffffffffffffffffffffffffffffffff160361114357600191505061115c565b808061114e90611887565b915050611075565b50600090505b92915050565b600080fd5b6000819050919050565b61117a81611167565b811461118557600080fd5b50565b60008135905061119781611171565b92915050565b6000602082840312156111b3576111b2611162565b5b60006111c184828501611188565b91505092915050565b600073ffffffffffffffffffffffffffffffffffffffff82169050919050565b60006111f5826111ca565b9050919050565b611205816111ea565b82525050565b600060208201905061122060008301846111fc565b92915050565b61122f816111ea565b811461123a57600080fd5b50565b60008135905061124c81611226565b92915050565b60006020828403121561126857611267611162565b5b60006112768482850161123d565b91505092915050565b61128881611167565b82525050565b60006020820190506112a3600083018461127f565b92915050565b6000806000606084860312156112c2576112c1611162565b5b60006112d086828701611188565b93505060206112e18682870161123d565b92505060406112f286828701611188565b9150509250925092565b600081519050919050565b600082825260208201905092915050565b6000819050602082019050919050565b611331816111ea565b82525050565b60006113438383611328565b60208301905092915050565b6000602082019050919050565b6000611367826112fc565b6113718185611307565b935061137c83611318565b8060005b838110156113ad5781516113948882611337565b975061139f8361134f565b925050600181019050611380565b5085935050505092915050565b600081519050919050565b600082825260208201905092915050565b6000819050602082019050919050565b6113ef81611167565b82525050565b600061140183836113e6565b60208301905092915050565b6000602082019050919050565b6000611425826113ba565b61142f81856113c5565b935061143a836113d6565b8060005b8381101561146b57815161145288826113f5565b975061145d8361140d565b92505060018101905061143e565b5085935050505092915050565b60006040820190508181036000830152611492818561135c565b905081810360208301526114a6818461141a565b90509392505050565b600082825260208201905092915050565b7f546865726520617265206e6f2066756e647320746f2077697468647261770000600082015250565b60006114f6601e836114af565b9150611501826114c0565b602082019050919050565b60006020820190508181036000830152611525816114e9565b9050919050565b7f4e487b7100000000000000000000000000000000000000000000000000000000600052603260045260246000fd5b7f4e487b7100000000000000000000000000000000000000000000000000000000600052602160045260246000fd5b600060608201905061159f60008301866111fc565b6115ac60208301856111fc565b6115b9604083018461127f565b949350505050565b60008115159050919050565b6115d6816115c1565b81146115e157600080fd5b50565b6000815190506115f3816115cd565b92915050565b60006020828403121561160f5761160e611162565b5b600061161d848285016115e4565b91505092915050565b7f4e487b7100000000000000000000000000000000000000000000000000000000600052601160045260246000fd5b600061166082611167565b915061166b83611167565b925082820190508082111561168357611682611626565b5b92915050565b600060808201905061169e600083018761127f565b6116ab60208301866111fc565b6116b860408301856111fc565b6116c5606083018461127f565b95945050505050565b7f46756e64696e672076616c7565206d757374206265206772656174657220746860008201527f616e207a65726f00000000000000000000000000000000000000000000000000602082015250565b600061172a6027836114af565b9150611735826116ce565b604082019050919050565b600060208201905081810360008301526117598161171d565b9050919050565b7f46756e6472616973652063616e206f6e6c79206265206c69717569646174656460008201527f206279206974732063726561746f720000000000000000000000000000000000602082015250565b60006117bc602f836114af565b91506117c782611760565b604082019050919050565b600060208201905081810360008301526117eb816117af565b9050919050565b7f46756e64726169736520616c7265616479206c69717569646174656400000000600082015250565b6000611828601c836114af565b9150611833826117f2565b602082019050919050565b600060208201905081810360008301526118578161181b565b9050919050565b600060408201905061187360008301856111fc565b611880602083018461127f565b9392505050565b600061189282611167565b91507fffffffffffffffffffffffffffffffffffffffffffffffffffffffffffffffff82036118c4576118c3611626565b5b600182019050919050565b60006040820190506118e4600083018561127f565b6118f160208301846111fc565b9392505050565b7f4e487b7100000000000000000000000000000000000000000000000000000000600052604160045260246000fd5b7f4f776e61626c653a206e6577206f776e657220697320746865207a65726f206160008201527f6464726573730000000000000000000000000000000000000000000000000000602082015250565b60006119836026836114af565b915061198e82611927565b604082019050919050565b600060208201905081810360008301526119b281611976565b9050919050565b7f4f776e61626c653a2063616c6c6572206973206e6f7420746865206f776e6572600082015250565b60006119ef6020836114af565b91506119fa826119b9565b602082019050919050565b60006020820190508181036000830152611a1e816119e2565b905091905056fea26469706673582212200cca093a66cec3716b105dbde0a7ae72630f7c91802fe386f57445254dabf39c64736f6c63430008110033",
  "linkReferences": {},
  "deployedLinkReferences": {}
}