{
  "_format": "hh-sol-artifact-1",
  "contractName": "Fundraiser",
  "sourceName": "contracts/fundraise/Fundraiser.sol",
  "abi": [
    {
      "anonymous": false,
      "inputs": [
        {
          "indexed": false,
          "internalType": "uint256",
          "name": "",
          "type": "uint256"
        }
      ],
      "name": "FundraiseCreated",
      "type": "event"
    },
    {
      "anonymous": false,
      "inputs": [
        {
          "indexed": false,
          "internalType": "uint256",
          "name": "",
          "type": "uint256"
        },
        {
          "indexed": false,
          "internalType": "address",
          "name": "funder",
          "type": "address"
        },
        {
          "indexed": false,
          "internalType": "address",
          "name": "token",
          "type": "address"
        },
        {
          "indexed": false,
          "internalType": "uint256",
          "name": "amount",
          "type": "uint256"
        }
      ],
      "name": "FundraiseFunded",
      "type": "event"
    },
    {
      "anonymous": false,
      "inputs": [
        {
          "indexed": false,
          "internalType": "uint256",
          "name": "",
          "type": "uint256"
        },
        {
          "indexed": false,
          "internalType": "address",
          "name": "",
          "type": "address"
        }
      ],
      "name": "FundraiseLiquidated",
      "type": "event"
    },
    {
      "anonymous": false,
      "inputs": [
        {
          "indexed": true,
          "internalType": "address",
          "name": "previousOwner",
          "type": "address"
        },
        {
          "indexed": true,
          "internalType": "address",
          "name": "newOwner",
          "type": "address"
        }
      ],
      "name": "OwnershipTransferred",
      "type": "event"
    },
    {
      "inputs": [
        {
          "internalType": "address",
          "name": "_beneficiary",
          "type": "address"
        }
      ],
      "name": "addFundraising",
      "outputs": [
        {
          "internalType": "uint256",
          "name": "id",
          "type": "uint256"
        }
      ],
      "stateMutability": "nonpayable",
      "type": "function"
    },
    {
      "inputs": [
        {
          "internalType": "uint256",
          "name": "_id",
          "type": "uint256"
        }
      ],
      "name": "fund",
      "outputs": [],
      "stateMutability": "payable",
      "type": "function"
    },
    {
      "inputs": [
        {
          "internalType": "uint256",
          "name": "_id",
          "type": "uint256"
        },
        {
          "internalType": "address",
          "name": "_asset",
          "type": "address"
        },
        {
          "internalType": "uint256",
          "name": "amount",
          "type": "uint256"
        }
      ],
      "name": "fundToken",
      "outputs": [],
      "stateMutability": "nonpayable",
      "type": "function"
    },
    {
      "inputs": [
        {
          "internalType": "uint256",
          "name": "_id",
          "type": "uint256"
        }
      ],
      "name": "getFundraisingAssets",
      "outputs": [
        {
          "internalType": "address[]",
          "name": "assets",
          "type": "address[]"
        },
        {
          "internalType": "uint256[]",
          "name": "amounts",
          "type": "uint256[]"
        }
      ],
      "stateMutability": "view",
      "type": "function"
    },
    {
      "inputs": [
        {
          "internalType": "uint256",
          "name": "_id",
          "type": "uint256"
        }
      ],
      "name": "getFundraisingBeneficiary",
      "outputs": [
        {
          "internalType": "address",
          "name": "",
          "type": "address"
        }
      ],
      "stateMutability": "view",
      "type": "function"
    },
    {
      "inputs": [
        {
          "internalType": "uint256",
          "name": "_id",
          "type": "uint256"
        }
      ],
      "name": "getFundraisingCreator",
      "outputs": [
        {
          "internalType": "address",
          "name": "",
          "type": "address"
        }
      ],
      "stateMutability": "view",
      "type": "function"
    },
    {
      "inputs": [
        {
          "internalType": "uint256",
          "name": "_id",
          "type": "uint256"
        }
      ],
      "name": "getFundraisingStatus",
      "outputs": [
        {
          "internalType": "enum FundraiseState",
          "name": "",
          "type": "uint8"
        }
      ],
      "stateMutability": "view",
      "type": "function"
    },
    {
      "inputs": [
        {
          "internalType": "uint256",
          "name": "_id",
          "type": "uint256"
        }
      ],
      "name": "liquidateFundraising",
      "outputs": [],
      "stateMutability": "nonpayable",
      "type": "function"
    },
    {
      "inputs": [],
      "name": "owner",
      "outputs": [
        {
          "internalType": "address",
          "name": "",
          "type": "address"
        }
      ],
      "stateMutability": "view",
      "type": "function"
    },
    {
      "inputs": [],
      "name": "renounceOwnership",
      "outputs": [],
      "stateMutability": "nonpayable",
      "type": "function"
    },
    {
      "inputs": [
        {
          "internalType": "address",
          "name": "newOwner",
          "type": "address"
        }
      ],
      "name": "transferOwnership",
      "outputs": [],
      "stateMutability": "nonpayable",
      "type": "function"
    },
    {
      "inputs": [],
      "name": "withdraw",
      "outputs": [],
      "stateMutability": "nonpayable",
      "type": "function"
    },
    {
      "stateMutability": "payable",
      "type": "receive"
    }
  ],
  "bytecode": "0x608060405234801561001057600080fd5b5061002d61002261003260201b60201c565b61003a60201b60201c565b6100fe565b600033905090565b60008060009054906101000a900473ffffffffffffffffffffffffffffffffffffffff169050816000806101000a81548173ffffffffffffffffffffffffffffffffffffffff021916908373ffffffffffffffffffffffffffffffffffffffff1602179055508173ffffffffffffffffffffffffffffffffffffffff168173ffffffffffffffffffffffffffffffffffffffff167f8be0079c531659141344cd1fd0a4f28419497f9722a3daafe3b4186f6b6457e060405160405180910390a35050565b611ce48061010d6000396000f3fe6080604052600436106100ab5760003560e01c8063ab2b6bab11610064578063ab2b6bab146101c7578063b754bd5114610204578063ca1d209d1461022d578063caef4a2814610249578063f17e0e4f14610272578063f2fde38b146102b0576100b2565b80633ccfd60b146100b75780635057f6a7146100ce5780636623bcc21461010b578063715018a61461014857806376a7985e1461015f5780638da5cb5b1461019c576100b2565b366100b257005b600080fd5b3480156100c357600080fd5b506100cc6102d9565b005b3480156100da57600080fd5b506100f560048036038101906100f0919061138f565b61044a565b60405161010291906113fd565b60405180910390f35b34801561011757600080fd5b50610132600480360381019061012d919061138f565b610499565b60405161013f91906113fd565b60405180910390f35b34801561015457600080fd5b5061015d6104e8565b005b34801561016b57600080fd5b5061018660048036038101906101819190611444565b6104fc565b6040516101939190611480565b60405180910390f35b3480156101a857600080fd5b506101b1610622565b6040516101be91906113fd565b60405180910390f35b3480156101d357600080fd5b506101ee60048036038101906101e9919061138f565b61064b565b6040516101fb9190611512565b60405180910390f35b34801561021057600080fd5b5061022b6004803603810190610226919061152d565b610687565b005b6102476004803603810190610242919061138f565b6107d5565b005b34801561025557600080fd5b50610270600480360381019061026b919061138f565b6108db565b005b34801561027e57600080fd5b506102996004803603810190610294919061138f565b610cd8565b6040516102a79291906116fc565b60405180910390f35b3480156102bc57600080fd5b506102d760048036038101906102d29190611444565b610eee565b005b6102e1610f71565b600047905060008111610329576040517f08c379a000000000000000000000000000000000000000000000000000000000815260040161032090611790565b60405180910390fd5b60005b6001805490508110156103bc576001818154811061034d5761034c6117b0565b5b906000526020600020906005020160040160003073ffffffffffffffffffffffffffffffffffffffff1673ffffffffffffffffffffffffffffffffffffffff16815260200190815260200160002054826103a7919061180e565b915080806103b490611842565b91505061032c565b5060008111610400576040517f08c379a00000000000000000000000000000000000000000000000000000000081526004016103f790611790565b60405180910390fd5b3373ffffffffffffffffffffffffffffffffffffffff166108fc829081150290604051600060405180830381858888f19350505050158015610446573d6000803e3d6000fd5b5050565b6000600182815481106104605761045f6117b0565b5b906000526020600020906005020160020160009054906101000a900473ffffffffffffffffffffffffffffffffffffffff169050919050565b6000600182815481106104af576104ae6117b0565b5b906000526020600020906005020160010160009054906101000a900473ffffffffffffffffffffffffffffffffffffffff169050919050565b6104f0610f71565b6104fa6000610fef565b565b600060018054905090506000600180816001815401808255809150500390600052602060002090600502019050818160000181905550338160010160006101000a81548173ffffffffffffffffffffffffffffffffffffffff021916908373ffffffffffffffffffffffffffffffffffffffff160217905550828160020160006101000a81548173ffffffffffffffffffffffffffffffffffffffff021916908373ffffffffffffffffffffffffffffffffffffffff16021790555060008160020160146101000a81548160ff021916908360018111156105e0576105df61149b565b5b02179055507f77e1787cd9895dafe6b4f3f1baad70c124093fa8e162349c24d1a826299ce755826040516106149190611480565b60405180910390a150919050565b60008060009054906101000a900473ffffffffffffffffffffffffffffffffffffffff16905090565b600060018281548110610661576106606117b0565b5b906000526020600020906005020160020160149054906101000a900460ff169050919050565b8173ffffffffffffffffffffffffffffffffffffffff166323b872dd3330846040518463ffffffff1660e01b81526004016106c49392919061188a565b6020604051808303816000875af11580156106e3573d6000803e3d6000fd5b505050506040513d601f19601f8201168201806040525081019061070791906118f9565b61071057600080fd5b8060018481548110610725576107246117b0565b5b906000526020600020906005020160040160008473ffffffffffffffffffffffffffffffffffffffff1673ffffffffffffffffffffffffffffffffffffffff16815260200190815260200160002060008282546107829190611926565b9250508190555061079383836110b3565b7fcae4743045653ec51b2398f4f9d7b8a3a9388d54371df2eb488f282b4c9cdb88833384846040516107c8949392919061195a565b60405180910390a1505050565b60003411610818576040517f08c379a000000000000000000000000000000000000000000000000000000000815260040161080f90611a11565b60405180910390fd5b346001828154811061082d5761082c6117b0565b5b906000526020600020906005020160040160003073ffffffffffffffffffffffffffffffffffffffff1673ffffffffffffffffffffffffffffffffffffffff168152602001908152602001600020600082825461088a9190611926565b9250508190555061089b81306110b3565b7fcae4743045653ec51b2398f4f9d7b8a3a9388d54371df2eb488f282b4c9cdb88813330346040516108d0949392919061195a565b60405180910390a150565b803373ffffffffffffffffffffffffffffffffffffffff1660018281548110610907576109066117b0565b5b906000526020600020906005020160010160009054906101000a900473ffffffffffffffffffffffffffffffffffffffff1673ffffffffffffffffffffffffffffffffffffffff161461098f576040517f08c379a000000000000000000000000000000000000000000000000000000000815260040161098690611aa3565b60405180910390fd5b81600060018111156109a4576109a361149b565b5b600182815481106109b8576109b76117b0565b5b906000526020600020906005020160020160149054906101000a900460ff1660018111156109e9576109e861149b565b5b14610a29576040517f08c379a0000000000000000000000000000000000000000000000000000000008152600401610a2090611b0f565b60405180910390fd5b6000610a348461114c565b905060005b81811015610c06576000610a4d868361117e565b90503073ffffffffffffffffffffffffffffffffffffffff168173ffffffffffffffffffffffffffffffffffffffff1614610b5c578073ffffffffffffffffffffffffffffffffffffffff1663a9059cbb60018881548110610ab257610ab16117b0565b5b906000526020600020906005020160020160009054906101000a900473ffffffffffffffffffffffffffffffffffffffff16610aee89856111ea565b6040518363ffffffff1660e01b8152600401610b0b929190611b2f565b6020604051808303816000875af1158015610b2a573d6000803e3d6000fd5b505050506040513d601f19601f82011682018060405250810190610b4e91906118f9565b610b5757600080fd5b610bf2565b60018681548110610b7057610b6f6117b0565b5b906000526020600020906005020160020160009054906101000a900473ffffffffffffffffffffffffffffffffffffffff1673ffffffffffffffffffffffffffffffffffffffff166108fc610bc588306111ea565b9081150290604051600060405180830381858888f19350505050158015610bf0573d6000803e3d6000fd5b505b508080610bfe90611842565b915050610a39565b506001808581548110610c1c57610c1b6117b0565b5b906000526020600020906005020160020160146101000a81548160ff02191690836001811115610c4f57610c4e61149b565b5b02179055507f379f8629db4f9950aad01936f52fb312961798c0b67d74bceffe8c3146842d498460018681548110610c8a57610c896117b0565b5b906000526020600020906005020160020160009054906101000a900473ffffffffffffffffffffffffffffffffffffffff16604051610cca929190611b58565b60405180910390a150505050565b6060806000610ce68461114c565b90508067ffffffffffffffff811115610d0257610d01611b81565b5b604051908082528060200260200182016040528015610d305781602001602082028036833780820191505090505b5092508067ffffffffffffffff811115610d4d57610d4c611b81565b5b604051908082528060200260200182016040528015610d7b5781602001602082028036833780820191505090505b50915060005b81811015610ee75760018581548110610d9d57610d9c6117b0565b5b90600052602060002090600502016003018181548110610dc057610dbf6117b0565b5b9060005260206000200160009054906101000a900473ffffffffffffffffffffffffffffffffffffffff16848281518110610dfe57610dfd6117b0565b5b602002602001019073ffffffffffffffffffffffffffffffffffffffff16908173ffffffffffffffffffffffffffffffffffffffff168152505060018581548110610e4c57610e4b6117b0565b5b90600052602060002090600502016004016000858381518110610e7257610e716117b0565b5b602002602001015173ffffffffffffffffffffffffffffffffffffffff1673ffffffffffffffffffffffffffffffffffffffff16815260200190815260200160002054838281518110610ec857610ec76117b0565b5b6020026020010181815250508080610edf90611842565b915050610d81565b5050915091565b610ef6610f71565b600073ffffffffffffffffffffffffffffffffffffffff168173ffffffffffffffffffffffffffffffffffffffff1603610f65576040517f08c379a0000000000000000000000000000000000000000000000000000000008152600401610f5c90611c22565b60405180910390fd5b610f6e81610fef565b50565b610f79611257565b73ffffffffffffffffffffffffffffffffffffffff16610f97610622565b73ffffffffffffffffffffffffffffffffffffffff1614610fed576040517f08c379a0000000000000000000000000000000000000000000000000000000008152600401610fe490611c8e565b60405180910390fd5b565b60008060009054906101000a900473ffffffffffffffffffffffffffffffffffffffff169050816000806101000a81548173ffffffffffffffffffffffffffffffffffffffff021916908373ffffffffffffffffffffffffffffffffffffffff1602179055508173ffffffffffffffffffffffffffffffffffffffff168173ffffffffffffffffffffffffffffffffffffffff167f8be0079c531659141344cd1fd0a4f28419497f9722a3daafe3b4186f6b6457e060405160405180910390a35050565b6110bd828261125f565b61114857600182815481106110d5576110d46117b0565b5b9060005260206000209060050201600301819080600181540180825580915050600190039060005260206000200160009091909190916101000a81548173ffffffffffffffffffffffffffffffffffffffff021916908373ffffffffffffffffffffffffffffffffffffffff1602179055505b5050565b600060018281548110611162576111616117b0565b5b9060005260206000209060050201600301805490509050919050565b600060018381548110611194576111936117b0565b5b906000526020600020906005020160030182815481106111b7576111b66117b0565b5b9060005260206000200160009054906101000a900473ffffffffffffffffffffffffffffffffffffffff16905092915050565b600060018381548110611200576111ff6117b0565b5b906000526020600020906005020160040160008373ffffffffffffffffffffffffffffffffffffffff1673ffffffffffffffffffffffffffffffffffffffff16815260200190815260200160002054905092915050565b600033905090565b600080600090505b6001848154811061127b5761127a6117b0565b5b906000526020600020906005020160030180549050811015611348578273ffffffffffffffffffffffffffffffffffffffff16600185815481106112c2576112c16117b0565b5b906000526020600020906005020160030182815481106112e5576112e46117b0565b5b9060005260206000200160009054906101000a900473ffffffffffffffffffffffffffffffffffffffff1673ffffffffffffffffffffffffffffffffffffffff160361133557600191505061134e565b808061134090611842565b915050611267565b50600090505b92915050565b600080fd5b6000819050919050565b61136c81611359565b811461137757600080fd5b50565b60008135905061138981611363565b92915050565b6000602082840312156113a5576113a4611354565b5b60006113b38482850161137a565b91505092915050565b600073ffffffffffffffffffffffffffffffffffffffff82169050919050565b60006113e7826113bc565b9050919050565b6113f7816113dc565b82525050565b600060208201905061141260008301846113ee565b92915050565b611421816113dc565b811461142c57600080fd5b50565b60008135905061143e81611418565b92915050565b60006020828403121561145a57611459611354565b5b60006114688482850161142f565b91505092915050565b61147a81611359565b82525050565b60006020820190506114956000830184611471565b92915050565b7f4e487b7100000000000000000000000000000000000000000000000000000000600052602160045260246000fd5b600281106114db576114da61149b565b5b50565b60008190506114ec826114ca565b919050565b60006114fc826114de565b9050919050565b61150c816114f1565b82525050565b60006020820190506115276000830184611503565b92915050565b60008060006060848603121561154657611545611354565b5b60006115548682870161137a565b93505060206115658682870161142f565b92505060406115768682870161137a565b9150509250925092565b600081519050919050565b600082825260208201905092915050565b6000819050602082019050919050565b6115b5816113dc565b82525050565b60006115c783836115ac565b60208301905092915050565b6000602082019050919050565b60006115eb82611580565b6115f5818561158b565b93506116008361159c565b8060005b8381101561163157815161161888826115bb565b9750611623836115d3565b925050600181019050611604565b5085935050505092915050565b600081519050919050565b600082825260208201905092915050565b6000819050602082019050919050565b61167381611359565b82525050565b6000611685838361166a565b60208301905092915050565b6000602082019050919050565b60006116a98261163e565b6116b38185611649565b93506116be8361165a565b8060005b838110156116ef5781516116d68882611679565b97506116e183611691565b9250506001810190506116c2565b5085935050505092915050565b6000604082019050818103600083015261171681856115e0565b9050818103602083015261172a818461169e565b90509392505050565b600082825260208201905092915050565b7f546865726520617265206e6f2066756e647320746f2077697468647261770000600082015250565b600061177a601e83611733565b915061178582611744565b602082019050919050565b600060208201905081810360008301526117a98161176d565b9050919050565b7f4e487b7100000000000000000000000000000000000000000000000000000000600052603260045260246000fd5b7f4e487b7100000000000000000000000000000000000000000000000000000000600052601160045260246000fd5b600061181982611359565b915061182483611359565b925082820390508181111561183c5761183b6117df565b5b92915050565b600061184d82611359565b91507fffffffffffffffffffffffffffffffffffffffffffffffffffffffffffffffff820361187f5761187e6117df565b5b600182019050919050565b600060608201905061189f60008301866113ee565b6118ac60208301856113ee565b6118b96040830184611471565b949350505050565b60008115159050919050565b6118d6816118c1565b81146118e157600080fd5b50565b6000815190506118f3816118cd565b92915050565b60006020828403121561190f5761190e611354565b5b600061191d848285016118e4565b91505092915050565b600061193182611359565b915061193c83611359565b9250828201905080821115611954576119536117df565b5b92915050565b600060808201905061196f6000830187611471565b61197c60208301866113ee565b61198960408301856113ee565b6119966060830184611471565b95945050505050565b7f46756e64696e672076616c7565206d757374206265206772656174657220746860008201527f616e207a65726f00000000000000000000000000000000000000000000000000602082015250565b60006119fb602783611733565b9150611a068261199f565b604082019050919050565b60006020820190508181036000830152611a2a816119ee565b9050919050565b7f46756e6472616973652063616e206f6e6c79206265206c69717569646174656460008201527f206279206974732063726561746f720000000000000000000000000000000000602082015250565b6000611a8d602f83611733565b9150611a9882611a31565b604082019050919050565b60006020820190508181036000830152611abc81611a80565b9050919050565b7f46756e64726169736520616c7265616479206c69717569646174656400000000600082015250565b6000611af9601c83611733565b9150611b0482611ac3565b602082019050919050565b60006020820190508181036000830152611b2881611aec565b9050919050565b6000604082019050611b4460008301856113ee565b611b516020830184611471565b9392505050565b6000604082019050611b6d6000830185611471565b611b7a60208301846113ee565b9392505050565b7f4e487b7100000000000000000000000000000000000000000000000000000000600052604160045260246000fd5b7f4f776e61626c653a206e6577206f776e657220697320746865207a65726f206160008201527f6464726573730000000000000000000000000000000000000000000000000000602082015250565b6000611c0c602683611733565b9150611c1782611bb0565b604082019050919050565b60006020820190508181036000830152611c3b81611bff565b9050919050565b7f4f776e61626c653a2063616c6c6572206973206e6f7420746865206f776e6572600082015250565b6000611c78602083611733565b9150611c8382611c42565b602082019050919050565b60006020820190508181036000830152611ca781611c6b565b905091905056fea26469706673582212207446c20b2ef4443b17e4cc8318d36679b0982356fe615832eeac05e6b9977c6864736f6c63430008110033",
  "linkReferences": {},
  "deployedLinkReferences": {}
}